:02000004C0D06A
:10000000B0B502AF8CB062B61C480024382221463D
:1000100001F0A4FB1A485922214601F09FFB194820
:100020001422214601F09AFB01F0ECFA164D2868E3
:100030000A906C46204604F083F8A0852C60134992
:10004000084205D06846002181850A9828600EE0A4
:1000500001F0F6FC012003F0E9FE00F0B9FC00F02D
:1000600087FE6846818D0A982860002904D101F036
:10007000A5FA00200CB0B0BD04F06EF8A41B00205F
:100080009C19002010190020D41C0020FFFF000044
:10009000F0B503AF81B0009316460C46054600212B
:1000A000382201F05BFB6C602E630098E8620698D2
:1000B0006863012028700102204602F077F901B040
:1000C000F0BD0000D0B502AF82B0826A002A1DD018
:1000D000436A197801AC21705B1C521E4362826234
:1000E000427C002A05D0C268521CC260827C002A71
:1000F00009D1406800216A46116001AC0123224603
:1001000002F072F92178084602B0D0BD0548784463
:1001100001F0E4FE02480068012104F01DF8C04629
:10012000D41C0020CA400000B0B502AF82B0144613
:100130000546A86AA04223D3002905D06B6AA2B263
:100140000846194601F012FB687C002802D0A97C01
:10015000002908D16A6A686800216B461960234645
:1001600002F042F9687C696A09196962A96A091B87
:10017000A962002802D0E8680019E86002B0B0BDAA
:100180000548784401F0AAFE02480068012103F006
:10019000E3FFC046D41C00206C400000F0B503AF64
:1001A00095B0039202910646BF4C2068119007ADAE
:1001B000284603F0C5FFA88525602346BB490842B1
:1001C00006D007A80021818511981860022225E138
:1001D000029870620399B16230780122082834468F
:1001E00000D11BE1254610352046083005902646F3
:1001F00018360020002900D108E104900692607CA6
:10020000002838D12046FFF75DFF216A4A1C226290
:1002100061180876216A13AA304600F06BF90128AC
:1002200008D0206A052800D1F2E0A06A0022002848
:10023000E8D1F2E013A80078002800D1FCE0216AA0
:100240006846056014AB3046059A00F079F900283D
:1002500000D1F4E0002014990029014606D1616A1A
:10026000491E6162A16A491CA1620121A174E0607A
:10027000206201206074E16A002904D0204688478A
:10028000002800D0B9E02078411E062900D9D0E02E
:10029000890002A2895889188F46C0461C000000B8
:1002A0002A0000003C00000076000000B4000000BE
:1002B000EC000000260100002978002900D1C3E0ED
:1002C000A168616195E02878002800D0BFE005981A
:1002D000006821287CD3DDE02878002800D0B9E030
:1002E00005980068212800D3B7E0E26890420BD956
:1002F000216B8918801AA26A824200D302462046E6
:10030000FFF712FFA068E268824276D1216B2022BB
:1003100055E02878002800D0A2E00598016821293E
:1003200000D3A0E0E06881420CD9091AA26A8A428F
:1003300000D30A46216B091821312046FFF7F4FE4D
:10034000A168E068884258D1206B412281544FE077
:100350002878002800D08BE005980168152900D383
:1003600089E0E06881420CD9091AA26A8A4200D366
:100370000A46216B091863312046FFF7D5FEA168B4
:10038000E068884239D133E02878002876D1059892
:100390000068212875D2E16888420CD9401AA26A07
:1003A000824200D30246206B411842312046FFF7BB
:1003B000BBFEA068E16881421FD1216B6222885494
:1003C00016E0287800285FD10598006821285ED2C1
:1003D000E16888420AD9401AA26A824200D30246E2
:1003E00000212046FFF7A0FEA068E168814204D109
:1003F0002078401C2070002060742078082816D0D7
:10040000A06A002800D0FAE6049A06E0024604E05A
:100410002848784401F062FD0222234B11981860AD
:1004200007A9898D00290DD1D0B215B0F0BD069A6B
:10043000F3E72F487844EDE71D487844EAE71E4883
:100440007844E7E703F088FE1C48784424E01C4821
:10045000784421E01C4878441EE01C4878441BE0A6
:100460001B48784418E01B48784401F037FD15E03C
:100470001B48784410E01B4878440DE01648784447
:100480000AE01648784407E01748784404E0174823
:10049000784401E00B48784401F020FD02480068F0
:1004A000012103F059FEC046D41C0020FFFF0000CC
:1004B000CA3D0000083E0000F63D00001B3E000063
:1004C000333E0000093E0000673E0000803E000011
:1004D0009B3E0000B43E0000C23E0000D83E00003B
:1004E000083F00001B3F0000243F0000393F000090
:1004F000143E000010B5007840B200281DDAC3B2E7
:10050000D808172819D39C09022C08D81C46B63CD9
:1005100000208C4213D898082F280ED309E01F28FA
:100520000BD31C46F63C00208C4208D898083F2884
:1005300003D300201070012010BD0120107010BDE9
:1005400070B5017849B2049C002905DB00201860D1
:1005500001211160207078E0C9B2CD08162D07D8AE
:1005600001211960007880381060002020706CE054
:100570008E09022E16D8B639196000212170037831
:10058000B83B032B61D8990001A3C958C9188F46FD
:10059000100000007C00000058000000680000000F
:1005A000407837E01E2D06D8012119600078C03848
:1005B0001060217049E0F639196001232370047836
:1005C000F83C0021032C40D8A10002A409590919C4
:1005D0008F46C04610000000460000004E0000009C
:1005E0005E00000040782EE04178090483781B0209
:1005F0000B43C07818430DE04178090683781B044B
:100600000B43C17809021943007902E081784078F0
:10061000000208431060012117E081784078000251
:1006200010E041780904847824020C43C078204308
:1006300009E041780906847824040C43C178090252
:1006400021430079084310601946084670BDF0B593
:1006500003AF8BB001920291064601252902104694
:1006600001F0A4FE03AC68460460093640230198FB
:100670002946324601F0B8FE0C3414220298214675
:1006800001F074F80BB0F0BDF0B503AF8BB01546B8
:1006900002910646012001900102284601F086FEE3
:1006A00003AC684604600936402328460199324667
:1006B00001F09AFE0C34204602992A4600F002F816
:1006C0000BB0F0BDF0B503AF95B002920C4600211F
:1006D0001F4A7A444B0003ADEB1A451A2D782E09B8
:1006E000965D1E700F262E40955D5D70491E13238A
:1006F000DB439942EED101252902029E304601F0EA
:1007000055FE0DA86946086003AA282130460E460A
:100710002946334601F068FE002041087F220A4046
:100720000DA98A5C082111401209284200D00A460E
:1007300003A9095C082A02D33A2900D3E0312154E5
:10074000401C2828E9D10020A05515B0F0BDC046B6
:10075000143D0000F0B503AF81B000920D4606468F
:10076000012D0CD13078302809D10020022B7CD308
:1007700030200099087000204870012075E0069A2A
:10078000AA4229D2A91AAC1C00209C426DD8002391
:10079000AA420AD030460A46009B04781C70401CCE
:1007A000521E5B1C002AF8D10B462E200099C8541B
:1007B000591C0120AB4258D200984018F218EC1A8C
:1007C0005D196D1C16780670401C521C641E002CAE
:1007D000F8D1EA1A009E2CE0541BD11C002099424B
:1007E00043D83020009908702E2048700221AA4278
:1007F0000ED00120012C214600D801460098801C13
:10080000302203F011FC0020401CA042FCD3811CCC
:10081000002D0A460AD0009840182A463378037003
:10082000401C521E761C002AF8D14A190020009E56
:10083000B05401200024914217D2755C002C0B4665
:1008400000D023460024302D00D02346491C8A4284
:100850001C46F2D1002B08D00021F154F218CB43F2
:10086000D35C521E2E2B00D1117001B0F0BD0020C0
:100870007047000041780120002907D04A1E044833
:10088000036801200021934200D008467047C0460B
:100890000018002080B500AF06486921017085214D
:1008A00041702020022101F05FFA00F091F8002051
:1008B00080BDC046241D0020B0B502AF0F4D4122BF
:1008C0002A70681C0E4C2146083100F04FFF422070
:1008D00028222A54284643304C34214600F046FF53
:1008E0006B20902129546C2000242C5420206D2151
:1008F00001F03AFA00F06CF82046B0BD241D00204B
:100900002419002000207047D0B502AF40780124A0
:10091000002813D0411E0A4A1268012400238A428B
:1009200000D01C468A4209D1022804D0012805D1F2
:100930007D20000100E0034801F0D8F92046D0BD39
:1009400044180020B80B000000207047F0B503AF3A
:1009500081B0054668780124002831D0401E1A492C
:10096000096801240022814200D01446814227D127
:10097000042825D8800002A1405840188746C04668
:1009800034000000140000003A00000014000000D1
:10099000140000000721284601F07AF97D21CE00DD
:1009A00081190A48814209D30721284601F070F9CC
:1009B000801903E07D20000100E0044801F096F971
:1009C000204601B0F0BDC04644180020B80B00001E
:1009D000B0B502AF0124250201F0C0FD28420ED1BE
:1009E0000E48002101600C490F4878440822012379
:1009F0000E4C7C440E4D7D442DC10C6008E0064930
:100A0000074878440422074B7B44002535C10B601E
:100A100001F006F9B0BDC0461019002000180020F2
:100A2000BA43000063FEFFFF4A3B00004B0000009A
:100A30007BFEFFFF80B500AF01F0F2F880BD000043
:100A4000B0B502AF1D49884219D01D4988421ED059
:100A50001C4988422FD11C48016801292BD1002153
:100A600001601A491A48784408220123194C7C4431
:100A7000194D7D442DC10C6001F0D2F81BE01248E5
:100A80000068012817D1002001F04AFD13E00E484C
:100A9000016800290FD1012101600C4A0F487844F8
:100AA00008230F4C7C440F4D7D4409C211605560F2
:100AB000946001F0B5F80020B0BDC046030000808E
:100AC00002000080010000800018002010190020A2
:100AD000CE3A0000CFFFFFFFFFFDFFFF963A000078
:100AE00099FFFFFFC9FDFFFFD0B502AF00242046EC
:100AF00001F016FD2046D0BDB0B502AF094C412231
:100B00002270601C084D2946083100F02FFE42205B
:100B10002822225443344C352046294600F026FE34
:100B20006B20B0BD241D00202419002080B500AF2B
:100B30000A4988420ED00A4988420DD109486921E4
:100B40000170852141702020022101F00DF9FFF78D
:100B50003FFF01E0FFF7B0FE002080BD02000080F3
:100B600001000080241D0020F0B503AFB1B02B4E72
:100B70003178301D29AD002305932A4601F0B2FCDF
:100B8000012003902024049406AB029329462246B8
:100B900001F04AFC28460599224600F0DFFD10AD21
:100BA000684630C02C361E490322029C204633463C
:100BB00001F076FC28222046059900F0CFFD287828
:100BC000039908401B3017490870691D2E1DEC78E9
:100BD000212C00D03146601945791248401C049AF6
:100BE00000F0C4FD3119481C212D00D00846811C9D
:100BF0000C4806462130049D2A4600F0B7FD4120EE
:100C0000902131544220059C34544321284601F060
:100C1000ABF8FFF7DDFE204631B0F0BD241900200F
:100C200001060000241D002080B500AF06486921A0
:100C30000170852141702020022101F095F8FFF715
:100C4000C7FE002080BDC046241D002080B500AF37
:100C50000A4988420ED00A4988420DD109486921C3
:100C60000170852141702020022101F07DF8FFF7FD
:100C7000AFFE01E0FFF778FF002080BD020000809A
:100C800001000080241D0020B0B502AF05460F20F2
:100C900028400024012813D0022813D1002908D0AD
:100CA0000B4801F077FC8020054209D001F044FB9D
:100CB00006E0412081000648002201F0A5FC044620
:100CC0002046B0BD03480068022103F045FAC04643
:100CD000241D0020D41C0020F0B503AF89B0009281
:100CE0000E46044601AD00212022284600F036FDC4
:100CF000A81B2030B2B2214600F038FD28460099EA
:100D000001F0B9FC09B0F0BDD0B502AF04462178BE
:100D1000002007291BD1A068442819D1E26844218A
:100D2000432A0CD8104881184420801AA26A8242B3
:100D300000D302462046FFF7F7F9A168E2680120D8
:100D40008A4204D12178491C217000216174D0BDF0
:100D50000648784401F0C2F802480068012103F017
:100D6000FBF9C046D41C00209C19002077360000F7
:100D7000F0B503AFC5B00024169444944394429454
:100D800017A801461431149124301590C14D41A883
:100D9000048028683F90264635AC204603F0D0F901
:100DA000A0852C60BC49084217D035A98E853F9993
:100DB00029600F21090301400922120391423446A0
:100DC00061D003225203914260D141A908800021E1
:100DD0003822B24800F0C2FC5FE02E46B04C439887
:100DE00044900025439542984499C0B289B200F0DE
:100DF000BBFF449042954498002800D1CDE2207872
:100E0000E028A84B00D0CCE260782146052800DD20
:100E10006AE202284ED0042800D0C7E20E794C1DA9
:100E20008878802800D1E2E0002800D0C6E29C4A01
:100E300050791870411EC9B20A2900D3E7E2941D07
:100E4000761E002813D0A8001818217809066278A9
:100E500012040A43A17809021143E2780A4342606E
:100E6000241D6D1CF6B2FC3618788542EBD30020A9
:100E7000694608608C4B7B44884D28468B498C4AD8
:100E8000FFF706F9B4E041A9088006E08949084067
:100E90000D21C902014341A80180814A4198000AFD
:100EA0004399505441984399891848704398801C3D
:100EB000439010E20A465179481EC0B20A2800D376
:100EC00084E29078022800D37BE20E90D07800284C
:100ED00000D076E2901D17AA00290B460FD00478A7
:100EE000240645782D042543847824022C43C578B4
:100EF00025431560001D5B1E121D002BEFD117A8A6
:100F00002DAE049600231193324601F0EBFA012432
:100F10000F942022059222AD204631462B4601F047
:100F200083FA20465F4E31462A46234601F09AFA5C
:100F300028222846119C214600F010FC04982146E6
:100F4000059A00F00BFC34464C3430462146574A93
:100F5000FFF79AFB0E98002800D13DE23020564D55
:100F6000287078206870A81C04220392214600F0A3
:100F7000FDFBA81D51497944032200F0F7FB2846E8
:100F8000093031467031039A00F0F0FB119E6E7308
:100F9000142202924A4D2846214600F0E7FB2E75A6
:100FA00040496031474C2046029A00F0DFFB26752D
:100FB0000F9D2C0201F0D2FA204265D14248066012
:100FC0000220424908604248784408210122414BEE
:100FD0007B44414C7C44414D17C52B60FFF794FC8A
:100FE0000028169C00D171E13D48784460E12B4D0A
:100FF0002B48C078002800D0E0E12878002800D1F4
:10100000EFE1F2B228462146FFF7C8F8012800D0E8
:10101000F0E1244A2C32684602600124002623486D
:101020002146334601F0E0F921486330FD49794417
:10103000142200F035FC00282A4D00D0BBE11294A8
:10104000F94979440422284600F02AFC002800D0FF
:10105000D7E15820285C002800D1ACE12C4644346C
:10106000294630311422204600F01AFC002800D016
:10107000A1E12320285C012836D01396002800D057
:10108000C2E1EA49794432E0FC4878440921FC4A4B
:101090007A4415E1D41C0020FFFF0000A41B0020AF
:1010A000241D0020241900208FFEFFFFF8190020C6
:1010B000DC1B0020FF070000041800202035000082
:1010C000191800202E18002044180020A01B002012
:1010D0002439000059FBFFFF31F9FFFF10190020F0
:1010E000023900009C1900201396ED4979440D2225
:1010F000D54802F095FF17A9089120460E46CF4A21
:10110000FFF7E0FA3020D14D287078206870A81CD5
:1011100004243146224600F029FBA81DDD4979440C
:10112000032200F023FB284609301599224600F0DF
:101130001DFB139E6E731424C54D28460899224644
:1011400000F014FB2E75C34D28461499224600F07A
:101150000DFB2E756220BA490A46115C10464230DA
:1011600022AD2A46FFF7B8FDB24804462246643253
:1011700010920A2164232846254601F0D5FFF14349
:1011800068186526805D491C0028F9D112220D924D
:1011900068460260642310982A46FFF7DBFA45216F
:1011A0000C91AD48017054210B91417048210A9176
:1011B000817020210991C170001D691C2A78002AC4
:1011C00006D002704B1C401C0A78002A1946F8D140
:1011D000139C04709A480999415C22AD2A46FFF796
:1011E0007BFD0A2164232846109A01F09DFFE1430C
:1011F000904D6818805D491C0028FAD168460D9A08
:101200000260642310982A46FFF7A4FA93480C99C9
:1012100001700B9941700A9981700999C170001D84
:10122000691C2A78002A06D002704B1C401C0A78E0
:10123000002A1946F8D113990170412080490A46C5
:10124000115C1046213022AC2246FFF745FD0A21F1
:10125000642320462A4601F067FF691C2A78002A89
:101260007F4806D002704B1C401C0A78002A1946A1
:10127000F8D1139E0670129D2C0201F06FF92042E6
:1012800019D1794806600520784908608648784475
:101290000E210122854B7B44854C7C44714E17C640
:1012A0003360FFF753FB0028169C0FD08148784429
:1012B00000F0B6FC0AE0784878440D21774A7A4479
:1012C000684B63C31A6000F0ABFC169C1020429977
:1012D00001434291564D3F98286035A9898D0029D8
:1012E00000D154E502F038FF062803D0FF285DD175
:1012F00045B0F0BD0B465979481EC0B20A2865D2E8
:101300009878DA780243FF20024257D1981D17AA35
:10131000002910D00B460478240645782D04254377
:10132000847824022C43C57825431560001D5B1E7C
:10133000121D002BEFD117A82DAE069600230793A0
:10134000324601F0CFF80124202222AD204631465A
:1013500016462B4601F068F8374920462A462346B0
:1013600001F080F828222846079D294600F0F6F96A
:1013700006982946324600F0F1F9324805462946DA
:1013800044312E4A2C48FFF762F958202C54284843
:1013900000680921090302F0DFFE3068354902F0D8
:1013A000DBFE30683721490202F0D6FE30686D213D
:1013B000090202F0D1FE354878442AE01C48006852
:1013C00000E030686B21090202F0C6FE2A4878442A
:1013D00000F084FD306820E0FFF78EFB6B20439027
:1013E000D5E73548784400F079FD11480068204978
:1013F00002F0B2FE02280ED00028C8D0224878445D
:1014000007E02348784404E02648784401E01D487A
:10141000784400F063FD06480068D521C90102F058
:101420009BFEC0466E3E00006E3E0000084100007C
:10143000D41C0020241D002024190020F8190020AD
:10144000DC1B00209C1900204818002004180020F4
:10145000191800202E1800207A180020AC1800203F
:10146000DE1800201019002044180020A01B0020C6
:101470008569000082690000BA3000006A36000009
:1014800071F8FFFF78300000B43000001431000024
:10149000E030000078330000FC3B000087F6FFFFDF
:1014A000B0400000F43000001E380000B3F9FFFF28
:1014B000AFF6FFFFFE370000B6300000F0B503AF17
:1014C00083B03A4A1078401F092866D8800002A1EC
:1014D000405840188746C04628000000C20000005F
:1014E000C2000000C2000000C2000000C2000000F4
:1014F000C20000003A0000006200000098000000F6
:101500002D480069002848D0D178490800F002FC35
:1015100043E02948818802910168D079937955790F
:101520001679D2786C46226032022A431B020343AA
:101530000846029900F0FDFA2FE01F4C6068A16890
:1015400002E0491CA1606068814226D2E268002A5C
:1015500007D038204843216808189047A168002820
:10156000EFD0481CA060382048432168081812E0DA
:101570000F4801680F4C2068401C02F045FD2160B7
:101580000D4C0120A060E168002903D02068884745
:10159000002802D0206800F043FB01F019F8002871
:1015A00001D100F093F9012003B0F0BD531C0020DD
:1015B000A01B00204418002010190020B0B502AF75
:1015C0008CB00E4D28680A906C46204602F0B8FD9B
:1015D000A0852C600A49084205D10020C04300F0D4
:1015E0009FFF6846808D0A9A2A600549084201D10A
:1015F0000CB0B0BD81B2104602F0AEFDD41C00208C
:10160000FFFF00000148002101607047D41C00204A
:10161000F0B503AF83B002920C460546474EB44284
:1016200011D00195454E40253046294602F0F2FC86
:1016300002984028024600D32A463046214600F050
:1016400095F83E4E019DB07805286DD8800002A126
:10165000405840188746C04618000000240000008B
:1016600032000000D0000000D00000004400000064
:101670000020B07170713071F07003E0F01C042133
:1016800000F076FE4021304601E02C484021A8477A
:101690002B4900200860C0B203B0F0BDF078284CA0
:1016A0002168090A8842F3D130792168C9B2884299
:1016B000EED1244802990D18206800280AD022484B
:1016C0000168AAB28A4200D9056820480068711DE5
:1016D000AAB21BE00B46B0797179090201431C489C
:1016E00001604121890002688A42D1D80168164808
:1016F00001601649174A0A6017495D18A9B20268C5
:10170000914200D90568F11DAAB2124800F02EF8E6
:10171000A8B20E490A6812180A600B490A68101A22
:1017200008602068401C20600748016801200029EB
:10173000B1D10348002101600220ACE7D81C002091
:10174000181D0020FBFF0000201D0020281E002087
:101750001C1D0020241D0020F9FF0100002A04D0D8
:10176000521E93B2C154002BFAD1704710B5884273
:1017700008D9002A10D0521E93B2CC5CC454002B5E
:10178000F9D109E0002A07D00B780370401C491CEE
:10179000521E024B1A42F7D110BDC046FFFF000097
:1017A0000148002101607047181D0020F0B503AF0B
:1017B00085B0029301920C460390002C45D0324E26
:1017C00000203060314932480860324A901C3E2186
:1017D000154602F01FFC2A46052090703068000A6A
:1017E000D07030681071A1B23068002809D03B2059
:1017F0003B2900D80846C4B20491244D2968501DE5
:101800000BE0200A507194713920392900D808461C
:10181000C4B204911D4D2968D01D16462246FFF71B
:10182000A5FF30462A46116809192546164E116053
:101830003168491C316040210446039A9047224692
:101840000498441B14480442C0D10F48002404608B
:101850008020029D054201D000F06EFD202005424F
:101860000FD10C4C019D40212046A847C2B2402A0E
:10187000F9D803982146FFF7CBFE0228F3D1074899
:101880000468A0B205B0F0BD181D0020281E00207D
:10189000241D0020D81C0020FFFF00001C1D00207C
:1018A000B0B50023002A0DD0074BD3189BB2CC5CF7
:1018B000C55C521EA542F4D00020C0430123A542BE
:1018C00000D80346D8B2B0BDFFFF000080B500AF1E
:1018D00000F07EFE00280BD1064860210170002137
:1018E000417002228270C1700171052100F052FE28
:1018F00080BDC046531C0020D0B502AF1748C07849
:10190000401E072828D8800001A14058401887466B
:101910002000000032000000480000003A000000F3
:10192000480000004800000048000000420000009D
:101930000B4C0121204601F01CFF204601F001FF65
:10194000D0BD074801F026FFD0BD054801F014FFC7
:10195000D0BD034801F018FFD0BDC046531C002085
:10196000541E00207F2101400148405C7047C04662
:101970002C1E0020D0B502AF10480179042908D0F0
:10198000022913D0012910D1811D0E4801F000FE5B
:10199000D0BDC1787F2211404379094C6354C1788E
:1019A0001140821D074801F025FED0BDC2787F217D
:1019B0001140821D034801F063FED0BD531C00207E
:1019C0002C1E0020541E0020F0B503AF81B00C4641
:1019D0000646FF2C30D8194D50202870E01C010A13
:1019E0006970A8708220E870202028716C7106212F
:1019F000284600F0CFFD3046214600F0CBFD02E046
:101A00000220FFF75BFD00F0E3FD002801D1FFF7A6
:101A10005DFF80210022284600F0F6FD2978062887
:101A2000EED1E8781029EBD129798228E8D1022972
:101A3000E6D16879A042E3D101B0F0BD531C00208B
:101A4000D0B502AF09480024047009480480094851
:101A500004800948048009480470FFF7A1FE084883
:101A600004600848046008480460D0BD331E0020AC
:101A7000341E0020361E0020381E00203A1E002092
:101A80003C1E0020401E0020441E0020B0B502AFC6
:101A90000D460446206B002806D000F045FC0146A8
:101AA00020468847002808D0002D03D02046A847AC
:101AB000002802D02046FEF7BDFFB0BDB0B502AF92
:101AC0008EB00C460546686B002806D000F02CFC52
:101AD000014628468847002811D068463822294602
:101AE000FFF744FE686A0490A86A0590002C03D0B2
:101AF0002846A047002802D06846FEF79BFF0EB09C
:101B0000B0BDB0B502AF0D460446E06A002806D06D
:101B100000F00AFC014620468847002808D0002D26
:101B200003D02046A847002802D02046FEF782FFB7
:101B3000B0BDB0B502AF82B000246D466C60069CAB
:101B40002C6000F003F802B0B0BD0000F0B503AFA8
:101B500087B003930492059100294BD00D9902910F
:101B60000C99019100252D4A06952C4638266E4386
:101B7000851912680123954200D0069B069382576F
:101B80000146002A19DA2022A85C0222AB5E1A1A4A
:101B9000049EB24211DCC218EB88D218049B934217
:101BA0000BDA0422AE5E321A039B9A4205DC32182D
:101BB0002B89D218039B93420EDB641CE5B2059877
:101BC0008542164A0846D1D3FF200699014211D01A
:101BD0001068002807D10DE0104A106885420BD02C
:101BE0001068002808D0106802991446FFF74EFFCD
:101BF0000020206007B0F0BD0198012808D002281D
:101C0000F8D10020106028460299FFF77AFFF1E72B
:101C1000156028460299FFF751FFEBE73C1E0020B4
:101C2000F0B503AF81B00446E569002D1CD016481D
:101C3000854203D3284600F077FB0546284602F08C
:101C400099FA064611486521017031461C310A0A8D
:101C500042708170032100F09DFC1C21204600F0A1
:101C600099FCB1B228460BE00848652101700021BB
:101C700041701C258570032100F08CFC204629460C
:101C800000F088FC01B0F0BD0000D0C0531C002063
:101C9000F0B503AF81B00E4604460025002C1FD0DE
:101CA0002078072801D002281AD1E0690E4988421D
:101CB00001D300F039FB002812D002F05BFA464352
:101CC000E08886420CD9311A7D2000014843A17E6C
:101CD00002F014F9A17A4900C9B264224A431518E6
:101CE000284601B0F0BDC0460000D0C080B500AFAE
:101CF000074A4E2111700021517002219170010A92
:101D0000D17010710521104600F044FC80BDC04622
:101D1000531C0020F0B503AF81B00246002A1CD04E
:101D20000F4C2068884203D10E4803685B1C036097
:101D3000206808430B4D2B68002901D0206005E086
:101D4000002626602E600126F607304324688C4268
:101D500001D0002129601946904701B0F0BDC0466E
:101D6000401E0020441E0020F0B503AF81B00446A1
:101D70000F20044206D02046FEF786FF0546A8B293
:101D800001B0F0BD1026264000292CD0002E2AD10B
:101D90003E48007807280BD0002804D02046FEF7E4
:101DA00073FF00280AD03A480068092102F0D4F9EC
:101DB0003E48784400222023FFF7F8FC00253348F2
:101DC000057034480580344805803448058034481F
:101DD000057020200442D2D1FFF778FD8020044214
:101DE00001D000F0A9FA002E10D14020044248D1C1
:101DF0002648002101702748018027480180274894
:101E000001802748017001E0FFF760FD264C80212A
:101E1000002520462A4600F0F7FBC11EA278637811
:101E20001B021343994209D12178102910D00F29A0
:101E300017D1042802D1FFF75FFDE5E71348002121
:101E40000170144801801448018014480180DBE7C8
:101E5000062894D3FFF78EFD0F4801880029D3D0C0
:101E600007E00220FFF72AFB00F0B2FB0028CDD1EB
:101E7000CAE70B4901220A70044907220A70058843
:101E80007DE7054800880749451878E7331E00209C
:101E9000D41C0020341E0020361E0020381E0020D6
:101EA0003A1E0020FBFF0000531C002013FCFFFF24
:101EB000B0B502AF82B001AC66212170002565701B
:101EC0000121A170E0700421204600F063FB032192
:101ED00020462A4600F098FB02B0B0BD83B0F0B5B2
:101EE00003AF8EB0044613A80EC0002C00D10CE244
:101EF00013A8099000E0089C2078002800D104E293
:101F000025460026014602E0A91B4978761ECAB282
:101F1000002A01D0252AF7D1AC1B72420792002E6D
:101F20000FD00894C0B2FFF7C3FF0020C44304E001
:101F3000281B0078FFF7BCFF641EA642F8D1089C5E
:101F40002178C8B22528D7D1A81B401C08900023AF
:101F50000493202103910A2102910593069306E040
:101F60000A236343181830380490039113461A4625
:101F70000420C643089C2078641C012510210023FE
:101F800062285DDC08940446253C232C00D9BCE083
:101F9000A40002A564596419A746C046C002000007
:101FA0001A0300001A0300001A0300001A030000BD
:101FB000F40000001A0300001A030000D2FFFFFF24
:101FC000060100001A0300009000000090000000CD
:101FD00090000000900000009000000090000000C1
:101FE00090000000900000009000000090000000B1
:101FF0001A0300001A0300001A0300001A0300006D
:102000001A0300001A0300001A0300001A0300005C
:102010001A0300001A0300001A0300001A0300004C
:102020001A0300001A030000320100003028039B4D
:10203000194600D10146049C002C91D019468FE727
:102040006F281DDD08947038082800D933E180001E
:1020500001A1405840188746AE0000005E02000013
:102060005E020000240000005E020000C8000000C4
:102070005E0200005E020000AE000000029928E04F
:10208000632854D00894642858D0682821D012E1DD
:1020900008980078732800D00DE102230999089868
:1020A0000FE0089A10782A2800D004E15178501CDB
:1020B000482904D0732902D0682900D0FBE001230D
:1020C00009990A1D09920968059108904FE70120B6
:1020D0000690099B181D0990D0B200240194E54395
:1020E0001C68012800D1BCE0022800D1E0E00328F0
:1020F00002911346264600D139E7701940786D1CCD
:102100000028FAD1AFE0069D02E0582800D0D2E0C6
:102110000998011D0991006800210291102319E01E
:102120000998011D099100680021029110E00998A9
:10213000011D09910078FFF7BBFEDDE60998011D3E
:1021400009910068C11742184A40C00F029010461A
:102150000A23069D049A05900121834218460C46E5
:1021600016D807910492044619461E4601F0C6FE91
:102170000799884209D130466043049A521E059956
:10218000884221463346ECD902E00C463346049A95
:10219000069404920026F14302980028089C00D17E
:1021A00002990191049840180399CAB2302A0CD1BF
:1021B00007961E460299002909D00AA92D230B7003
:1021C000012107910021029101E007961E46811E20
:1021D0000D290ED8411E00290BD00AA8079B1843D1
:1021E00001F022FF04980799401801994018401EF9
:1021F0000790069A0298002805D00AA82D21079B6F
:10220000C1545B1C0793002A1DD004950498002834
:1022100002D0444D7D4401E0414D7D440598114676
:10222000069201F06BFE314601F0EEFE685C0AA9F1
:10223000079D48550698314601F060FE02466D1C28
:102240000795002AE2D10AAD079E04E02878FFF73F
:102250002FFE6D1C761E002EF8D14DE6FFF728FEEE
:1022600049E6059D264610292FD1002D089C069988
:1022700000D141E6079630780F2606400009012973
:1022800005D000290ED1C0B2234C7C4402E0C0B27C
:10229000224C7C44205CFFF70BFEA05D089CFFF7FE
:1022A00007FE06996D1E079E761C002DE2D123E6DF
:1022B0002078002814D01748784480194079FFF717
:1022C000F7FD761C002EF6D115E6002D019C10D0EE
:1022D000305DFFF7EDFD641CA542F9D12C4608E006
:1022E0000598C4432020FFF7E3FD641C002CF9D1BE
:1022F000079C0498A04200D8FDE5241A2020FFF78F
:10230000D7FD641C002CF9D1F5E50EB0F0BC01BC82
:1023100003B00047142F0000222F00002A2F0000D6
:10232000922F0000A82F00007A460249C91C891A82
:10233000401A70472923D0C080B500AF82B0094849
:1023400000900948016801916946084601DF01468D
:102350000649009A8A4201D102B080BD006804217A
:1023600001F0FAFE00010060D41C0020F101009091
:1023700080B500AF84B00A4A00920A4A13680193FC
:10238000029003916846004601DF00460649009B23
:102390008B4201D104B080BD1068042101F0DCFE45
:1023A0002C040060D41C00206704009080B500AFAE
:1023B00084B00A4A00920A4A13680193029003917A
:1023C0006846004601DF00460649009B8B4201D16A
:1023D00004B080BD1068042101F0BEFE3C0900601D
:1023E000D41C002039090090B0B502AF88B00B4C66
:1023F00001940B4C2568029503AD0FC50C9807900E
:1024000001A8004601DF00460649019A8A4201D12F
:1024100008B0B0BD2068042101F09EFEA60B00604C
:10242000D41C0020460B0090B0B502AF86B00A4C19
:1024300000940A4C2568019502AD0FC56846004618
:1024400001DF00460649009A8A4201D106B0B0BDBC
:102450002068042101F080FEED260060D41C0020DD
:10246000AE260090B0B502AF86B00A4C00940A4C7C
:102470002568019502AD0FC56846004601DF00469C
:102480000649009A8A4201D106B0B0BD20680421F5
:1024900001F062FE2E270060D41C002074270090FB
:1024A000B0B502AF88B00C4C00940C4C2568019577
:1024B00002AD0FC50C9806900D980790684600462F
:1024C00001DF00460649009A8A4201D108B0B0BD3A
:1024D0002068042101F040FE012C0060D41C002083
:1024E000F32C0090B0B502AF86B00A4C00940A4CB1
:1024F0002568019502AD0FC56846004601DF00461C
:1025000006480099814201D106B0B0BD206804217F
:1025100001F022FE6F450060D41C00204B45009066
:1025200080B500AF84B00A4901910A490A68029255
:10253000039001A8004601DF00460748019A824245
:1025400001D104B080BD0868042101F005FEC04639
:10255000E1530060D41C00206F53009080B500AFA1
:1025600082B0094800900949086801906846004611
:1025700001DF0046064A009B934201D102B080BDB4
:102580000868042101F0E8FDD6580060D41C002042
:102590004458009080B500AF84B00A4A00920A4ABD
:1025A00013680193029003916846004601DF0046DC
:1025B00006480099814201D104B080BD1068042111
:1025C00001F0CAFD1C5C0060D41C0020F35C00908C
:1025D00080B500AF82B009480090094908680190B1
:1025E0006846004601DF0046064A009B934201D13F
:1025F00002B080BD0868042101F0AEFDCF5D00602F
:10260000D41C00207F5D0090D0B502AF86B00B4B8C
:1026100001930B4B1C68029403AC07C401A800464D
:1026200001DF00460749019A8A4202D180B206B012
:10263000D0BD1868042101F08FFDC046D15E006056
:10264000D41C00202B5E009010B54179090402795A
:1026500012060A43817909021143C2790A430178BB
:10266000090643781B040B4381780C021C43C17894
:102670002143104610BDB0B502AF0C460546FFF72A
:10268000E3FF03C428460830083CFFF7DDFFA060E5
:10269000E16028461030FFF7D7FF206161611835EF
:1026A0002846FFF7D1FFA061E161B0BDF0B585B06C
:1026B000802968D2002908D040290DD18168C068DE
:1026C000002311605060936042E00AC80AC20168AA
:1026D0004068506011605BE03F293BD80568039576
:1026E00044688C40202301935E1A04962B46F340E5
:1026F00023430C46203CA540002C00DA1D460295E1
:1027000040235D1A00958668C768EE40019B5D1BFB
:102710003B46AB4033433E46049DEE40002D00DA7D
:102720001E46039B8B40009DEF40F318029D6F41B6
:1027300088C28368C5681846884010608D40184676
:102740000499C8402843A340083A002C00DA034605
:10275000D3601DE00B46413B3E2B14D80C46403C59
:102760008368C5681846A0401060A5406020441AE0
:102770001846E040284360398B40002900DA0346C0
:102780000020536002E00020106050609060D06034
:1027900005B0F0BDF0B503AF97B014460E46054640
:1027A000300A002800D088E0002E0ED0802E1AD1EA
:1027B0002869696903C4A869E9696160206000202B
:1027C00060612061E060A0607BE003CD03C4286805
:1027D000696861602060A868E968E160A0602869B4
:1027E0006969083C55E07F2E56D812AA2846314622
:1027F000FFF75CFF8020811B10350EAA284600F0F1
:1028000062F81498109A159B1199101803904B4177
:1028100004930123029300239042029A059200D36D
:1028200005930498884200D31A46884200D0059246
:10283000129902910E99139801900F9A0298091813
:10284000009101984241491C029153410599002988
:1028500000D113460793059900290299049800D1E5
:102860000099069109900398089006AA103228460C
:102870003146FFF71BFF0698079903C4089809998A
:10288000616020600A980B99E160A0600C980D9936
:10289000083CE161A06114E0304681387E280CD804
:1028A0001035803E284631462246FFF7FFFE0020C5
:1028B00020616061A061E06103E02021204601F019
:1028C000A9FB17B0F0BDF0B584B0802968D200290B
:1028D00007D040290DD10021516011600168406886
:1028E00004E00AC80AC201684068083AD0609160F2
:1028F0005BE03F2939D80668029643688768C0685C
:102900001C46CC40546020240194651A03951C4653
:10291000AC40CE4026430D46203D1C46EC40002DE9
:1029200000DA344614600446039EB440CF40274387
:102930000446EC40002D00DA3C4600944024651A21
:10294000AB40019C641B029E3746E7401F43344660
:102950003346039EB440002E00DA3C46AB40C840EC
:102960000099C918604191601EE00B46413B3E2B27
:1029700016D80C46403C036840680546E540D560E3
:1029800060256D1A0646AE40E34033436039C840C7
:10299000002900DA1846002111605160906004E0BF
:1029A0000020106050609060D06004B0F0BDF0B5C1
:1029B00003AF93B014460E460546300A002878D17E
:1029C000002E0ED0802E1BD103CD616120612868BE
:1029D0006968E161A0610020E060A0606060206043
:1029E0006BE003CD03C42868696861602060A86853
:1029F000E968E160A06028696969616120615CE063
:102A00007F2E45D802AA28463146FFF75CFF2846AC
:102A100010300EAA3146FFF756FF8020811B0AAA0C
:102A20002846FFF743FE10990C9A11980D9D5318F4
:102A300000936841012600219342324600D30A46A2
:102A40000192A84200D30E46A84200D001960E9DE6
:102A50000A9E0F9B0B9A76195A41751C5141019B96
:102A6000002B00D111460791002B00D13546069569
:102A70000990009E0896029A039B0CC4049A059B39
:102A8000E160083C214608312CC1E061A66114E0F8
:102A9000304681387E280CD8803E224610322846A7
:102AA0003146FFF710FF002020606060A060E0600A
:102AB00003E02021204601F0ADFA13B0F0BD70B55F
:102AC0000468031D0ECB1E460E43154625433543B1
:102AD000002D16D08020002D32D05508DA072A4369
:102AE0006608CD0735432E461643E4075B082343AB
:102AF00049080C461C433443401C002C2C46ECD1A6
:102B00001EE00469034614330ECB084618432546DD
:102B1000154305430020002D12D05508DA072A433B
:102B20006608CD0735432E461643E4075B0823436A
:102B300049080C461C433443401C002C2C46ECD165
:102B400070BDF0B5024609C91568546826465E4056
:102B50002F46474037430839002F1ED18868CB687D
:102B60009468D5685D4044402C43002C22D108690C
:102B70004B691569546926465E402F4647403743E6
:102B8000002F0AD1886995690123002485421846DF
:102B900000D82046C969D26916E001210022854289
:102BA000084600D810469C4200D811469C4212D0DC
:102BB000084610E08868956801230024854218467D
:102BC00000D82046C968D2688A4200D823468A4283
:102BD00001D01846F0BDF0BDF0B503AF81B00D4691
:102BE0000446FFF7AEFF01460120002927D103CD9F
:102BF0000CCC4B4042401A430020083C083D002AC0
:102C00001DD1A968EA68A368E66856404B40334383
:102C1000002B14D129696A692369666956404B40C3
:102C20003343002B0BD1A869E969A269E3694B40E2
:102C300042401A4301200021002A00D0084601B07A
:102C4000F0BDF0B595B014928A68CD688768C36806
:102C5000BA1A1C46AC41012600251395BA423546E6
:102C600000D8139D9C42324600D8139A9C4200D053
:102C7000154614C988C8083808399B1AA741139A01
:102C8000D24312925C1E11943C465441002D00D157
:102C90003C4608942746149C6760002D00D1119390
:102CA000149B119C1C608D68039582680492CF6808
:102CB0000297C4680594551B0695BC4107949D6016
:102CC000DC608D690A95CA69099283690F93C469AA
:102CD0005D1B0095274697419D42334600D8139BC4
:102CE000A74200D8139EA7420B9400D033460C692C
:102CF0000D944D690C95066913964269361B14466E
:102D0000AC41751E1095129D6541002B00D12546E2
:102D100012952C465440002B109D00D135462B4671
:102D2000139E734023430C4618340E940446183403
:102D3000109410311030149C08340194002B15D1DC
:102D40001292012300220F9C009DA5421C4600D92F
:102D500014460B9DAF42109E00D91346AF4200D0DF
:102D60001C46002C0A9B099F42D113E0012300243A
:102D7000B5421D4600D82546129E9642099F00D8AE
:102D80002346964200D01D461292002D109E0B9DA8
:102D90000A9B2DD00022D2431392119B5B1E1293EB
:102DA000089D2C465441049B039F7B40059F029A3B
:102DB00057401F43002F00D02C46149A5460002F18
:102DC000129B00D0119B1360069B5B1E079C139AFD
:102DD0005441019A18C20E9A88CA32680F927568D7
:102DE0000A680D9249680C9101681391406812902D
:102DF0000F9AD01A2C46BC4101230021904218465C
:102E000000D80846AC42129A139E00D80B46AC423A
:102E100000D018460D9BF31A0C9CA2411446CA43DD
:102E2000591E6241002800D12246149C626100288C
:102E3000109D00D1194621610E9903C90CCD101ABD
:102E40008B41A061E36115B0F0BDF0B503AFB7B041
:102E50000B930A920C460994054616A8182101F016
:102E6000D9F8002013901D90012015901C90284641
:102E7000FFF725FE06462046FFF721FE29680D9143
:102E80006A680E921F921E91A9680891EA680C92D6
:102E900021922091296906916A69079223922291D1
:102EA000A9690491EA69059225922491301A149037
:102EB00020462946FFF745FE1EAB1C46183429461E
:102EC00018311E4610362A461032083308350128BC
:102ED00012D10B9C0D9820600E98606009CDE360C4
:102EE000A06005CA6261206103C9E161A06120217F
:102EF0000A9801F08FF814E1159D0196029403934E
:102F00002EAA0998149C2146FFF744FC16A826AA6D
:102F10002146FFF73FFC2F9802460E994A402E9912
:102F20000B460D9C63401343002B22462BD1309A55
:102F30001146089E7140319803460C9D6B400B432F
:102F4000002B32D1329A114606984140339D2B46D0
:102F5000079E73400B43002B36D134990120002289
:102F6000049B9942014600D81146359B059CA3421B
:102F70000B9E0A9C00D81046059A934200D0014649
:102F8000002932D13EE091422B461946139D00D9CB
:102F900029460E9A90420A9C00D92B46904200D0B6
:102FA000194600290B9E2DD11FE001210025B242B8
:102FB0000A4600D82A460C9B98420B9E0A9C00D8D1
:102FC000294698420ED10EE00121002382420A4692
:102FD00000D81A46B5420B9E0A9C00D8194607989D
:102FE000854200D00A46002A0CD0254601242EA88E
:102FF00021460246FFF7DBFC26A821462C46024666
:10300000FFF7D5FC1EA80999FFF7E6FD002501286A
:10301000159514951395284629462A462B4666D1C0
:103020000A940B9626A8014618310D9101461031DD
:103030000C9108300E900025159514951395129556
:10304000119510950F95099E1EA82EA9FFF7C4FD96
:10305000012822D12EA91EA80246FFF7F2FD0D99E4
:1030600003C9159A0A43159205430C9903C9139A8B
:103070000A4313921499014314910E9903C9119AAA
:103080000A43119212990143129127980F99014313
:103090000F91269810990143109101242EA82146E2
:1030A0000246FFF784FC26A821460246FFF77FFC74
:1030B0001EA83146FFF790FD0028C5D1029801688F
:1030C0000491406805900198016806914068079056
:1030D00003980168089140680C901F980E901E9903
:1030E0000D910B9E0A9C12981199109A0F9B0CC47B
:1030F000206061601498A0601398E06025611598C5
:1031000060610D9931600E9870600898B0600C98FD
:10311000F06006983061079870610498B061059876
:10312000F06137B0F0BD0000F0B503AFA1B01D46AF
:1031300014460E4606C819921891016842681B92FF
:103140001A918168C2681D921C91016940691F90A3
:103150001E9110A8202100F05DFF08A8182100F0A2
:1031600059FF00200F9018A90A46183206920A4605
:1031700010320592083107910E96B11E0E294ED8D5
:10318000039410A818300290681E04900025019541
:103190002E460498864241D808A918A810AB0246CA
:1031A000FFF753FE029800781E497944095C0398A2
:1031B000815506980CC8059C11CC1C43079D28CD51
:1031C0002543199C2C4310431843189A0243224369
:1031D000751C002ADCD10022039C62550120002EC0
:1031E0001DD023782170A355711E022917D3019099
:1031F00060190690D24302232046841A2178079151
:103200000699CE1A3178217007993170521EA9188B
:10321000491E5C1C8B4223460446EDD3019821B025
:10322000F0BDC0463C12000002490020086002497F
:1032300008607047481E00204C1E0020D0B502AF29
:1032400006484F2101700024447001218170022141
:10325000C1700421FFF79EF92046D0BD531C002009
:10326000F0B503AF83B001AD4F262E7000246C7013
:103270000220A8700320E8702C7105212846FFF772
:1032800089F92E706C700120A870E870042128461E
:10329000FFF780F9204603B0F0BDD0B502AF82B091
:1032A00001A84F2101700024447001218170022186
:1032B000C1700421FFF76EF9204602B0D0BD0000B6
:1032C000F0B503AF83B01A480025056019480560C2
:1032D00001AE4F20307075700520B0700420F07082
:1032E000012434717171B571032A19D8910002A2B9
:1032F000895889188F46C04610000000160000004B
:103300001C0000002200000001A8847108E001A94F
:10331000887105E001A8032101E001A80221817163
:1033200001A8C3710821FFF735F9002003B0F0BDF3
:10333000481E00204C1E0020D0B502AF82B0684667
:103340004F22027000244470052282700422C27051
:103350000122027141718471C4710821FFF71AF9C9
:10336000204602B0D0BD0000D0B502AF82B00C46FE
:103370006846502101700021417003228270C470A0
:103380004022027141710621FFF704F97F2121409B
:103390000120884080210C4201D1054900E0034909
:1033A0000A6802430A60002002B0D0BD481E002017
:1033B0004C1E0020B0B502AF82B00C4668465021CA
:1033C00001700021417003228270C4708025057154
:1033D00041710621FFF7DEF87F2020400121814066
:1033E000C8432C4201D1054900E003490A68024064
:1033F0000A60002002B0B0BD481E00204C1E002014
:103400008020014205D17F20014001228A400648E8
:1034100004E07F20014001228A40024800681040F9
:10342000C0B27047481E00204C1E0020D0B502AF2D
:1034300082B068464F2202700024447002228270DB
:103440000322C27001710521FFF7A4F8204602B0E3
:10345000D0BDB0B502AF82B01C46154668465022BA
:103460000270E21C130A43708270C1702021017146
:1034700044710621FFF78EF828462146FFF78AF8A7
:10348000002002B0B0BDD0B502AF82B06846502374
:1034900003700024447003238370C17030210171D4
:1034A00042710621FFF776F8204602B0D0BDF0B594
:1034B00003AF81B015460E4604460220002C11D001
:1034C00049208100204600F0A5FD002E02D01120E9
:1034D00000012650FC200121215425702046FFF7D1
:1034E000A3FE0020C0B201B0F0BDD0B502AF0446CB
:1034F000FC2001212154452080002058002806D0BE
:103500004068FEF711FF0246217920469047204689
:10351000FFF7C3FE2046FFF791FE0020D0BD022238
:10352000002903D04522920081500022D0B270477A
:1035300080B500AFFFF794FE002080BDB0B502AFAC
:103540000C46054645208000285800280CD000680D
:10355000FEF7EAFE02462846214690470146022031
:10356000002900D10846B0BD0220B0BDB0B502AF01
:103570000C460546452080002858002806D04068A3
:10358000FEF7D2FE02462846214690470020B0BDF5
:10359000F0B503AF81B004462120C600A519284626
:1035A00000F032FBF4200121215087204000205AF6
:1035B000F8216050A15D1F200840022808D0012892
:1035C0000BD000280ED12046294600F0F7F80EE077
:1035D0002046294600F097FA09E02046294600F0E7
:1035E0006AFA04E0802001402046FFF7BDFE00207B
:1035F00001B0F0BDF0B503AF81B015460E460446EC
:10360000002E11D04520800020588069002834D039
:10361000FC21615C032930D1FEF786FE034620467B
:1036200031462A46984728E0F4202058032824D120
:10363000902020588C21615822468C3281420AD930
:10364000091A1160814200D301468AB220462946F8
:1036500000F033FC11E0452080002058006900286C
:1036600008D0FC21615C032904D1FEF75DFE014610
:1036700020468847204600F028FC002001B0F0BD1D
:10368000F0B503AF81B00D460446002D12D04520A1
:1036900080002058002851D0406900284ED0FC21DD
:1036A000615C03294AD1FEF73FFE024620462946C7
:1036B000904743E0F4202058022837D1E069266A79
:1036C000B04208D9801BE06183B2204611461A46F9
:1036D00000F0E9FB2AE0A5692846314600F094FC99
:1036E000B5420FD300290DD1F82020582646F836D0
:1036F000854207D20025204629462A4600F0D3FB02
:10370000356013E045208000205800280BD0C068A9
:10371000002808D0FC21615C032904D1FEF704FED7
:10372000014620468847204600F0DCFB01200102CC
:103730006018615C012901D100210170002001B0F5
:10374000F0BDD0B502AF0446902040212150216247
:10375000FC2001212154452080002058002806D05B
:103760004068FEF7E1FD024621792046904700209F
:10377000D0BD017400207047FC21425CFD23C2547F
:103780000422425400207047FD21415CFC228154F8
:1037900000207047D0B502AF0446FC20205C03280F
:1037A0000AD1452080002058C069002804D0FEF7C7
:1037B000BBFD0146204688470020D0BDF0B503AFD1
:1037C00081B00D4604466878092800D919E18000C7
:1037D00001A1405840188746280000006000000002
:1037E0002A0200007E0000002A020000F40000000F
:1037F000360100002A020000AA000000CA000000F2
:10380000FC20205CFE210140022900D0F9E00120CB
:10381000E06041208000215825460C350320002916
:1038200005D0204600F05EFBE16802200843E0601E
:1038300002222046294610E1FC20205CFE210140A6
:10384000022900D0DDE06888012800D007E141208E
:103850008000002106E06888012800D0FFE04120B8
:103860008000012121504520800020588068FEF70B
:103870005BFD0246204629469047204600F025FB86
:10388000EDE0E888012800D0BBE0FC20205C0328A4
:103890006BD0022800D0B4E00020A060214608319F
:1038A00064E0A9787D4D2970022900D3A9E0FC20AD
:1038B000225C2046FC30032A5AD0022A00D0A0E025
:1038C0000029DAD06160032202705DE0A888002838
:1038D00000D096E0E888002800D092E068887F2633
:1038E0000640FC20205C2546FC35032800D188E0FA
:1038F000FE202654F1B22046FFF798FD204600F046
:10390000E4FA002E00D1ADE002202870A7E068881C
:10391000010A491E0E2974D8890002A28958891803
:103920008F46C0463C000000B80000007000000058
:10393000DE000000DE000000C8000000D80000002B
:10394000DE000000DE000000DE000000DE000000FF
:10395000DE000000DE000000DE000000A20000002B
:10396000112000012058006831E0211D012273E080
:1039700000294FD06068814200D17EE7C1B2204665
:10398000FFF7F4FD297861602046FFF7D7FD022894
:1039900037D072E7C0B2052833D8800001A1405863
:1039A0004018874618000000C6000000D000000044
:1039B000DA000000E4000000EE0000001120000129
:1039C0002058406803E0112000012058C069FEF72C
:1039D000ABFC0246207C6946904730E045208000E1
:1039E0002058217C00291FD0C06A23E0207C0028B9
:1039F00007D1452080002058406B1BE0207C002828
:103A000014D080212046FFF7AFFC00212046FFF7AD
:103A1000ABFC24E00222027061602046FFF7A6FDA5
:103A2000204600F052FA28E7806A03E04520800033
:103A30002058006BFEF778FC01466846884701462F
:103A400068460288002A0AD0E888002807D0824207
:103A500000D3024668460280204600F015FA002096
:103A600001B0F0BD01202870F9E7112000012058B5
:103A70008068ACE7112000012058C068A7E711203A
:103A8000000120580069A2E7112000012058406978
:103A90009DE7112000012058806998E7501E002002
:103AA000D0B502AF04468021FFF75EFC002120461E
:103AB000FFF75AFCD0BDB0B502AF0D460446FC205E
:103AC000205C032815D1A888FE210140012910D8C7
:103AD0004520800020588068FEF726FC02462046DC
:103AE00029469047E88800280BD1204600F0EDF9E0
:103AF00007E080212046FFF737FC00212046FFF732
:103B000033FC0020B0BDF0B503AF81B00E460446D3
:103B100030886021014020290AD1452080002058AA
:103B20008068FEF701FC024620463146904768E077
:103B30003579000A002813D001281BD0032860D152
:103B4000FC20205C032819D17088002832D1802005
:103B5000284380282ED020462946FFF705FC29E07F
:103B6000FC20205C032833D0022810D17F2005429E
:103B70000AD146E0FC20205C032811D0022806D19F
:103B80008020284380283CD02046294605E080211B
:103B90002046FFF7E9FB00212046FFF7E5FB30E078
:103BA000708800282DD17F2005420DD0204629465F
:103BB000FFF700FC4520800020588068FEF7B4FB2A
:103BC0000246204631469047204600F07EF918E034
:103BD000264614362046843080210D4200D1064608
:103BE00020462946FFF70CFC0121002800D10146A0
:103BF0007F2005402801315031180222204600F074
:103C000043F9002001B0F0BD0A7802704A78427092
:103C10008A78CB781B02134343800A794B791B02C5
:103C2000134383808A79C97909021143C18070479F
:103C3000F0B503AF83B00D46044602A80026068007
:103C400001A80670288860210140000A002923D0BD
:103C500020294BD1801E092818D8800001A1405886
:103C6000401887466400000064000000280000003F
:103C700028000000280000002800000028000000A4
:103C8000280000005C0000005C000000204629467F
:103C9000FFF706FF022629E00B2811D00A2813D0CF
:103CA000062823D16888000A002621280FD0222860
:103CB0003246314617D102A8009000F08FF80AE092
:103CC000204600F002F911E001A901220BE002A850
:103CD000009000F07BF8009B01461A88E888824239
:103CE00000D302461A80204600F0CEF8F0B203B0AE
:103CF000F0BDF0B503AF81B0044682210225402615
:103D00002A463346FFF7DCFA204629462A46334640
:103D1000FFF7D6FA204629463246FFF7B4FB0020CB
:103D200001B0F0BDD0B502AF04468221FFF704FB1D
:103D300002212046FFF700FB0020D0BD12200880A2
:103D4000014878447047C0465015000004200880A0
:103D5000014878447047C046BA1400000E2008801D
:103D6000014878447047C046BE1400000E20088009
:103D7000014878447047C046A01400000220088023
:103D8000014878447047C0468E1400000E20088019
:103D9000014878447047C0468E1400000E20088009
:103DA000014878447047C0467E1400000A21018013
:103DB000014878447047C046D6140000292101808C
:103DC000014878447047C0468E14000009210180E4
:103DD000014878447047C046AA140000222101809F
:103DE000014878447047C0464C140000B0B502AF9B
:103DF0001446022540222946FFF745FB2846FDF7D9
:103E0000B1FD0246084878442146FDF701FC02282E
:103E100003D103480068034908800020B0BDC046B4
:103E20001C1D0020361E0020BFDBFFFFF0B503AFD6
:103E300081B0044649208500104800212A46FDF73C
:103E40008DFC002C15D00D4C0026204631462A460C
:103E5000FDF784FC0A49794420463246FFF727FBE8
:103E6000084979442046FFF75AFB2046FFF760FBDC
:103E700002E00248FFF739FB01B0F0BD541E0020FC
:103E80004E14000072130000D0B502AF13460A466C
:103E9000F421022444508361C36100242146FFF7CA
:103EA000D8FA2046D0BDD0B502AF13460A4600244A
:103EB0002146FFF7CEFA2046D0BDD0B502AF002490
:103EC0002146FFF7E0FA2046D0BDD0B502AFF4217D
:103ED000042242500024214622462346FFF7B9FA25
:103EE0002046D0BDD0B502AFF421052242500024B7
:103EF00021462246FFF7C7FA2046D0BD00224308DC
:103F00008B4274D303098B425FD3030A8B4244D3A1
:103F1000030B8B4228D3030C8B420DD3FF220902E3
:103F200012BA030C8B4202D31212090265D0030BA2
:103F30008B4219D300E0090AC30B8B4201D3CB0398
:103F4000C01A5241830B8B4201D38B03C01A5241DA
:103F5000430B8B4201D34B03C01A5241030B8B42DC
:103F600001D30B03C01A5241C30A8B4201D3CB02C7
:103F7000C01A5241830A8B4201D38B02C01A5241AC
:103F8000430A8B4201D34B02C01A5241030A8B42AF
:103F900001D30B02C01A5241CDD2C3098B4201D3C7
:103FA000CB01C01A524183098B4201D38B01C01A45
:103FB000524143098B4201D34B01C01A52410309BC
:103FC0008B4201D30B01C01A5241C3088B4201D36B
:103FD000CB00C01A524183088B4201D38B00C01A18
:103FE000524143088B4201D34B00C01A5241411A3F
:103FF00000D20146524110467047FFE701B500204C
:1040000000F006F802BDC0460029F7D076E77047F9
:104010007047C04610B5002200F006F810BDC0463B
:1040200010B500F009F810BD130010B50A00190012
:1040300000F040F810BDC04670B50F2A32D90C0010
:1040400004430B00A40731D115000400103D2D09D5
:1040500001352D0149191E6826605E6866609E68FC
:10406000A660DE681033E66010349942F3D10F2366
:1040700045191340032B1BD91C1F0023A40801342E
:10408000A400CE58EE5004339C42FAD103232D19DC
:1040900009191A4005D00023CC5CEC5401339A4234
:1040A000FAD170BD0500002AF5D1FAE70500F2E764
:1040B0001A00F8E770B583073FD0541E002A3BD0A2
:1040C000CEB20300032503E0621E002C34D014009E
:1040D00001335A1E16702B42F6D1032C24D9FF252A
:1040E0000D402A0215432A0415430F2C11D926002E
:1040F000103E3609013636011A009B1915605560CD
:104100009560D56010329342F8D10F221440032CF1
:104110000AD9261FB6080136B6001A009B1920C21C
:104120009342FCD103221440002C05D0C9B21C19C3
:10413000197001339C42FBD170BD14000300CCE721
:10414000F0C041464A4653465C466D4676467EC0C0
:104150002838F0C80020704710307CC89046994637
:10416000A246AB46B54608C82838F0C8081C00D19E
:104170000120184710B5830727D00378002B26D0DD
:104180000300032102E01A78002A1CD001330B42FD
:10419000F9D119680F4A104C8A188A4322420FD16C
:1041A000043319680B4A8A188A43224208D104331F
:1041B0001968084A8A188A432242F1D000E0013384
:1041C0001A78002AFBD1181A10BD0300E1E700207D
:1041D000FAE7C046FFFEFEFE808080807265616463
:1041E00054784279746520556E646572666C6F7799
:1041F0000A00636F707954784461746120556E646D
:104200006572666C6F770A00524C50207072652D93
:104210006465636F6465206572726F720A00524C48
:1042200050207072652D6465636F6465206C6F67E4
:104230006963206572726F720A00524C5020646587
:10424000636F6465206572726F720A00496E7661F1
:104250006C696420524C50206465636F6465722001
:10426000636F6E746578740A00496E76616C696478
:10427000207479706520666F7220524C505F434FF6
:104280004E54454E540A00496E76616C6964207440
:1042900079706520666F7220524C505F4E4F4E43CE
:1042A000450A00496E76616C6964206C656E6774BE
:1042B0006820666F7220524C505F4E4F4E43450A45
:1042C00000496E76616C6964207479706520666F50
:1042D0007220524C505F47415350524943450A00A7
:1042E000496E76616C6964206C656E6774682066DF
:1042F0006F7220524C505F47415350524943450A18
:1043000000496E76616C6964207479706520666F0F
:104310007220524C505F53544152544741530A004B
:10432000496E76616C6964206C656E67746820669E
:104330006F7220524C505F535441525447415320A6
:1043400025640A00496E76616C6964207479706531
:1043500020666F7220524C505F56414C55450A0002
:10436000496E76616C6964206C656E67746820665E
:104370006F7220524C505F56414C55450A00496EB1
:1043800076616C6964207479706520666F72205262
:104390004C505F544F0A00496E76616C6964206C22
:1043A000656E67746820666F7220524C505F544F80
:1043B0000A00496E76616C696420747970652066C4
:1043C0006F7220524C505F444154410A00496E764E
:1043D000616C6964206C656E67746820666F72201A
:1043E000524C505F444154410A003031323334352D
:1043F00036373839616263646566005573652077C6
:10440000616C6C657420746F0073706C6974204506
:1044100054483C3E455443005175697420617070A6
:10442000004554433C3E4554482073706C69740009
:1044300043414E43454C00434F4E4649524D004385
:104440006F6E6669726D2061646472657373004398
:104450006F6E6669726D004163636F756E740041C3
:104460006D6F756E7400526563697069656E742056
:104470006163636F756E7400476173207072696366
:104480006500476173206C696D697400496E7661DF
:104490006C696420706174680A002E2E2E005061D1
:1044A00072736572206E6F7420696E697469616CD5
:1044B000697A65640A00556E657870656374656431
:1044C00020706172736572207374617475730A0071
:1044D000496E76616C6964207461726765742061ED
:1044E0006464726573730A00496E76616C69642056
:1044F000636F6E74726163742063616C6C204944F5
:104500000A00496E76616C696420626F6F6C656148
:104510006E0A004578697400434F4E4649524D205B
:1045200053504C4954004761732070726963652091
:104530002F2073746172740003000000000080007B
:10454000200000000100000000000000FFFFFF004D
:10455000000000000000000000000000000000005B
:10456000000000000000000000000000000000004B
:104570000501110009000E000E00000000000000FF
:10458000FFFFFF000000000000001A000000000014
:10459000000000000000000000000000000000001B
:1045A0000000000000000000070126000C00800051
:1045B0002000000000000000FFFFFF0000000000DE
:1045C0000A000000FB43D0C0000000000000000013
:1045D00000000000000000000000000000000000DB
:1045E000070127001A0080002000000000000000E2
:1045F000FFFFFF00000000000A0000000944D0C0D7
:1046000000000000000000000000000000000000AA
:104610000000000000000000050176000E00070009
:104620000400000000000000FFFFFF000000000089
:1046300000000C000000000000000000000000006E
:10464000000000000000000000000000000000006A
:1046500005021D0009000E000E0000000000000011
:10466000FFFFFF000000000000000F00000000003E
:10467000000000000000000000000000000000003A
:10468000000000000000000007023200130080005C
:104690002000000000000000FFFFFF0000000000FD
:1046A000080000001844D0C0000000000000000016
:1046B00000000000000000000000000000000000FA
:1046C000050203000E0007000400000000000000C7
:1046D000FFFFFF000000000000000B0000000000D2
:1046E00000000000000000000000000000000000CA
:1046F0000000000000000000030000000000400176
:10470000E001000001000000F9F9F900F9F9F900F1
:104710000000000000000000000000000000000099
:104720000000000000000000000000000000000089
:1047300003000000000040013C00000001000000F8
:1047400028201D0028201D0000000000000000009F
:104750000000000000000000000000000000000059
:1047600000000000000000000200140000004001F2
:104770003C00000001000000FFFFFF0028201D009A
:10478000042000002144D0C0000000000000000010
:104790000000000000000000000000000000000019
:1047A000810023008101780028000006010000003C
:1047B000CCCCCC00F9F9F90004A000003044D0C002
:1047C0000000000099AE3700F9F9F9009508D0C053
:1047D00000000000000000008100A50081017800B9
:1047E0002800000601000000B4CC4100F9F9F900EE
:1047F00004A000003744D0C00000000099AE37008C
:10480000F9F9F900B908D0C000000000000000006C
:1048100002000000930040012000000000000000A2
:1048200000000000F9F9F900048000003F44D0C006
:104830000000000000000000000000000000000078
:10484000000000000000000002000000180140010C
:10485000210000000000000000000000F9F9F9004C
:104860000980000004180020000000000000000083
:104870000000000000000000000000000000000038
:10488000020000003601400121000000000000008D
:1048900000000000F9F9F900048000001918002058
:1048A0000000000000000000000000000000000008
:1048B0000000000000000000020000004A0140016A
:1048C000210000000000000000000000F9F9F900DC
:1048D000048000002E1800200000000000000000EE
:1048E00000000000000000000000000000000000C8
:1048F0000300000000008000200000000100000014
:1049000000000000FFFFFF000000000000000000AA
:104910000000000000000000000000000000000097
:10492000000000000000000005011F0009000E004B
:104930000E00000000000000FFFFFF00000000006C
:1049400000001B000000000000000000000000004C
:104950000000000000000000000000000000000057
:10496000070134000C00800020000000000000005F
:10497000FFFFFF0000000000080000004F44D0C00F
:104980000000000000000000000000000000000027
:104990000000000000000000070135001A00800040
:1049A0002000000000000000FFFFFF0000000000EA
:1049B000080000007044D0C00000000000000000AB
:1049C00000000000000000000000000000000000E7
:1049D000070200000C008000200000000000000022
:1049E000FFFFFF00000000000A8000005744D0C015
:1049F00000000000000000000000000000000000B7
:104A00000000000000000000070200001A00800003
:104A10002000000000000000FFFFFF000000000079
:104A200008800000041800200000000000000000C2
:104A30000000000000000000000000000000000076
:104A4000050003000C000700070000000000000044
:104A5000FFFFFF0000000000000007000000000052
:104A60000000000000000000000000000000000046
:104A70000000000000000000050075000D000800A7
:104A80000600000000000000FFFFFF000000000023
:104A90000000060000000000000000000000000010
:104AA0000000000000000000000000000000000006
:104AB0000300000000008000200000000100000052
:104AC00000000000FFFFFF000000000000000000E9
:104AD00000000000000000000000000000000000D6
:104AE0000000000000000000050003000C000700AB
:104AF0000700000000000000FFFFFF0000000000B2
:104B0000000007000000000000000000000000009E
:104B10000000000000000000000000000000000095
:104B2000050075000D0008000600000000000000F0
:104B3000FFFFFF0000000000000006000000000072
:104B40000000000000000000000000000000000065
:104B500000000000000000000501150009000E0023
:104B60000E00000000000000FFFFFF00000000003A
:104B7000000018000000000000000000000000001D
:104B80000000000000000000000000000000000025
:104B900007012A000C008000200000000000000037
:104BA000FFFFFF0000000000080000004F44D0C0DD
:104BB00000000000000000000000000000000000F5
:104BC000000000000000000007012B001A00800018
:104BD0002000000000000000FFFFFF0000000000B8
:104BE000080000004818002000000000000000003D
:104BF00000000000000000000000000000000000B5
:104C0000070200000C0080002000000000000000EF
:104C1000FFFFFF00000000000A8000005F44D0C0DA
:104C20000000000000000000000000000000000084
:104C30000000000000000000070217001A005200E8
:104C40000B008A0000000000FFFFFF0000000000D2
:104C500008801A007A180020000000000000000000
:104C60000000000000000000000000000000000044
:104C7000070300000C00800020000000000000007E
:104C8000FFFFFF00000000000A8000006644D0C063
:104C90000000000000000000000000000000000014
:104CA0000000000000000000070310001A00600070
:104CB0000B00000000000000FFFFFF0000000000EC
:104CC0000880000004180020000000000000000020
:104CD00000000000000000000000000000000000D4
:104CE000070400000C00800020000000000000000D
:104CF000FFFFFF00000000000A8000007844D0C0E1
:104D000000000000000000000000000000000000A3
:104D10000000000000000000070417001A00520005
:104D20000B008A0000000000FFFFFF0000000000F1
:104D300008801A00AC1800200000000000000000ED
:104D40000000000000000000000000000000000063
:104D5000070500000C00800020000000000000009B
:104D6000FFFFFF00000000000A8000008244D0C066
:104D70000000000000000000000000000000000033
:104D80000000000000000000070517001A00520094
:104D90000B008A0000000000FFFFFF000000000081
:104DA00008801A00DE18002000000000000000004B
:104DB00000000000000000000000000000000000F3
:104DC0000300000000004001E001000001000000BD
:104DD000F9F9F900F9F9F9000000000000000000FD
:104DE00000000000000000000000000000000000C3
:104DF000000000000000000003000000000040016F
:104E00003C0000000100000028201D0028201D009B
:104E10000000000000000000000000000000000092
:104E20000000000000000000000000000000000082
:104E300002001400000040013C00000001000000DE
:104E4000FFFFFF0028201D00042000002144D0C0E7
:104E50000000000000000000000000000000000052
:104E600000000000000000008100BE00D7007800B4
:104E70002800000601000000B4CC4100F9F9F90057
:104E800004A000001345D0C00000000099AE370018
:104E9000F9F9F900E90AD0C00000000000000000A4
:104EA0005DC8108FC79018113A58328F5283B3766D
:104EB000B83922EF9C7093430300000000004001CA
:104EC000E001000001000000F9F9F900F9F9F9002A
:104ED00000000000000000000000000000000000D2
:104EE00000000000000000000000000000000000C2
:104EF00003000000000040013C0000000100000031
:104F000028201D0028201D000000000000000000D7
:104F10000000000000000000000000000000000091
:104F2000000000000000000002001400000040012A
:104F30003C00000001000000FFFFFF0028201D00D2
:104F4000042000002144D0C0000000000000000048
:104F50000000000000000000000000000000000051
:104F60008100230081017800280000060100000074
:104F7000CCCCCC00F9F9F90004A000003044D0C03A
:104F80000000000099AE3700F9F9F900290CD0C0F3
:104F900000000000000000008100A50081017800F1
:104FA0002800000601000000B4CC4100F9F9F90026
:104FB00004A000003744D0C00000000099AE3700C4
:104FC000F9F9F900690BD0C00000000000000000F2
:104FD0000200000057004001200000000000000017
:104FE00000000000F9F9F900048000001845D0C065
:104FF00000000000000000000000000000000000B1
:105000000000000000000000020000007D004001E0
:10501000210000000000000000000000F9F9F90084
:10502000098000007A180020000000000000000045
:105030000000000000000000000000000000000070
:1050400002000000AF00400121000000000000004D
:1050500000000000F9F9F9000980000004180020A0
:105060000000000000000000000000000000000040
:10507000000000000000000002000000CD00400120
:10508000210000000000000000000000F9F9F90014
:10509000048000001918002000000000000000003B
:1050A0000000000000000000000000000000000000
:1050B00002000000E10040012100000000000000AB
:1050C00000000000F9F9F900048000002E1800200B
:1050D00000000000000000000000000000000000D0
:1050E0000000000000000000020000000901400173
:1050F000200000000000000000000000F9F9F900A5
:10510000048000002645D0C0000000000000000020
:10511000000000000000000000000000000000008F
:1051200002000000310140012100000000000000E9
:1051300000000000F9F9F90009800000AC18002017
:10514000000000000000000000000000000000005F
:1051500000000000000000000200000045014001C6
:10516000210000000000000000000000F9F9F90033
:1051700009800000DE180020000000000000000090
:10518000000000000000000000000000000000001F
:1051900053706C697420746F204554430000000004
:1051A00053706C697420746F2045544800000000EF
:1051B000303132333435363738396162636465668D
:1051C000303132333435363738394142434445463D
:1051D0004552524F52000000F33CD0C0253DD0C094
:1051E000313CD0C0000000000000000000000000C2
:1051F000ED3DD0C0000000000000000000000000F5
:10520000BD3DD0C0BD3DD0C0BD3DD0C0AD3DD0C086
:105210000403090402030E034C00650064006700E8
:10522000650072000E034E0061006E006F002000EA
:10523000530006A0FF0901A1010903150026FF0084
:105240007508954081080904150026FF007508952A
:10525000409108C009022900010102C0320904007E
:1052600000020300000209211101000122220007AF
:105270000582034000010705020340000100000011
:105280000921110100012222000000000A0600028B
:105290000000004001001201000200000040972CB5
:1052A00001000002010203013D3DD0C04D3DD0C0D0
:1052B0006D3DD0C05D3DD0C07D3DD0C08D3DD0C0E6
:1052C0009D3DD0C000000000000000000000000074
:1052D00000000000000000000000000000000000CE
:1052E00000000000000000000000000000000000BE
:1052F00000000000000000000000000000000000AE
:04000005C0D0000166
:00000001FF
